{
  "contractName": "StringCompare",
  "abi": [
    {
      "inputs": [
        {
          "internalType": "string",
          "name": "a",
          "type": "string"
        },
        {
          "internalType": "string",
          "name": "b",
          "type": "string"
        }
      ],
      "name": "comPare",
      "outputs": [
        {
          "internalType": "bool",
          "name": "",
          "type": "bool"
        }
      ],
      "stateMutability": "pure",
      "type": "function",
      "constant": true
    },
    {
      "inputs": [
        {
          "internalType": "string",
          "name": "a",
          "type": "string"
        },
        {
          "internalType": "string",
          "name": "b",
          "type": "string"
        }
      ],
      "name": "conCat",
      "outputs": [
        {
          "internalType": "string",
          "name": "",
          "type": "string"
        }
      ],
      "stateMutability": "pure",
      "type": "function",
      "constant": true
    }
  ],
  "bytecode": "0x608060405234801561001057600080fd5b50610474806100206000396000f3fe608060405234801561001057600080fd5b50600436106100365760003560e01c806330b2a6101461003b578063500a4acf1461006b575b600080fd5b6100556004803603810190610050919061018f565b61009b565b60405161006291906102b1565b60405180910390f35b6100856004803603810190610080919061018f565b6100b6565b60405161009291906102cc565b60405180910390f35b60008180519060200120838051906020012014905092915050565b606060006040518060400160405280600181526020017f2000000000000000000000000000000000000000000000000000000000000000815250905083818460405160200161010793929190610280565b60405160208183030381529060405291505092915050565b600061013261012d84610313565b6102ee565b90508281526020810184848401111561014e5761014d61041e565b5b610159848285610377565b509392505050565b600082601f83011261017657610175610419565b5b813561018684826020860161011f565b91505092915050565b600080604083850312156101a6576101a5610428565b5b600083013567ffffffffffffffff8111156101c4576101c3610423565b5b6101d085828601610161565b925050602083013567ffffffffffffffff8111156101f1576101f0610423565b5b6101fd85828601610161565b9150509250929050565b6102108161036b565b82525050565b600061022182610344565b61022b818561034f565b935061023b818560208601610386565b6102448161042d565b840191505092915050565b600061025a82610344565b6102648185610360565b9350610274818560208601610386565b80840191505092915050565b600061028c828661024f565b9150610298828561024f565b91506102a4828461024f565b9150819050949350505050565b60006020820190506102c66000830184610207565b92915050565b600060208201905081810360008301526102e68184610216565b905092915050565b60006102f8610309565b905061030482826103b9565b919050565b6000604051905090565b600067ffffffffffffffff82111561032e5761032d6103ea565b5b6103378261042d565b9050602081019050919050565b600081519050919050565b600082825260208201905092915050565b600081905092915050565b60008115159050919050565b82818337600083830152505050565b60005b838110156103a4578082015181840152602081019050610389565b838111156103b3576000848401525b50505050565b6103c28261042d565b810181811067ffffffffffffffff821117156103e1576103e06103ea565b5b80604052505050565b7f4e487b7100000000000000000000000000000000000000000000000000000000600052604160045260246000fd5b600080fd5b600080fd5b600080fd5b600080fd5b6000601f19601f830116905091905056fea26469706673582212205128a86a28d85e38392a71b47a8514f19a1fe423a44a4ff75c694fd295e7c04a64736f6c63430008060033",
  "immutableReferences": {},
  "source": "pragma solidity 0.8.6;\r\n//SPDX-License-Identifier: UNLICENSED\r\ncontract StringCompare {\r\n \r\n function  comPare(string memory a, string memory b) public pure returns  (bool) {\r\n     \r\n    return keccak256(bytes(a)) == keccak256(bytes(b)); \r\n    }\r\n \r\n \r\n function conCat(string memory a, string memory b) public pure returns (string memory){\r\n     \r\n     string memory sp = \" \";\r\n     \r\n     \r\n    return string(abi.encodePacked(a,sp, b));\r\n }\r\n}",
  "sourcePath": "C:/Users/tariq/Documents/Trainings/PIAIC/Solidity/Truffle-practice/contracts/StringCompare.sol",
  "compiler": {
    "name": "solc",
    "version": "0.8.6+commit.11564f7e.Emscripten.clang"
  },
  "schemaVersion": "3.4.1",
  "updatedAt": "2021-08-20T15:00:18.747Z",
  "networkType": "ethereum",
  "devdoc": {
    "kind": "dev",
    "methods": {},
    "version": 1
  },
  "userdoc": {
    "kind": "user",
    "methods": {},
    "version": 1
  }
}